:100000000C9434000C9411010C9451000C94510088
:100010000C9451000C9451000C9451000C9451001C
:100020000C9451000C9451000C9451000C9451000C
:100030000C9451000C9451000C94BB000C94510092
:100040000C9451000C9451000C9451000C945100EC
:100050000C9451000C9451000C9451000C945100DC
:100060000C9451000C94510011241FBECFEFD4E02A
:10007000DEBFCDBF11E0A0E0B1E0E0E4FCE002C0F3
:1000800005900D92A235B107D9F711E0A2E5B1E0D4
:1000900001C01D92AA37B107E1F70E9474000C94C9
:1000A0001E060C94000084B1866084B9E0E8F0E09C
:1000B00081EB808389E080938100F0938900E09355
:1000C0008800F0938B00E0938A0092E094BD95BD88
:1000D0008EE487BD90936E00089552985A9A1092BC
:1000E000690081E08DBB08950E9416020E940503FD
:1000F0000E94A703109267011092660104C082E576
:1001000091E00E945E0480915201853EC1F38530EA
:10011000B1F380915B01873591F780915C01813467
:1001200071F780915D01863551F70E94610584B1B8
:10013000866084B920E830E081EB8093800089E01C
:1001400080938100309389002093880030938B0046
:1001500020938A0092E094BD95BD8EE487BD909374
:100160006E0052985A9A1092690081E08DBB0E94ED
:100170008A017894FFCF1F920F920FB60F9211242D
:100180002F933F934F935F936F937F938F939F939F
:10019000AF93BF93EF93FF93DF93CF930F92CDB7BE
:1001A000DEB78091500190E09093890080938800A1
:1001B00090938B0080938A00CE0101960E949B054C
:1001C0008093500189818823C1F482E591E00E94E7
:1001D0005E0480915201853EC1F38530B1F3809178
:1001E0005B01873591F780915C01813471F78091D3
:1001F0005D01863551F70E9461050F90CF91DF9127
:10020000FF91EF91BF91AF919F918F917F916F91EE
:100210005F914F913F912F910F900FBE0F901F90C4
:1002200018951F920F920FB60F9211242F933F93A0
:100230004F935F936F937F938F939F93AF93BF93EE
:10024000CF93DF93EF93FF9380E091E00E94ED0165
:10025000C0E0D0E084E190E00E94FA012196C8322B
:10026000D105C1F78EE091E00E94ED01C0916801D7
:10027000D091690104C08FEF0E941002219682E0A4
:10028000C030D807C0F3409A8EE191E00E94ED01A2
:1002900082E591E00E945E0480915201853EC1F3A7
:1002A0008530B1F380915B01873591F780915C01D6
:1002B000813471F780915D01863551F78EE291E0CE
:1002C0000E94ED010E9461058EE391E00E94ED0124
:1002D000FF91EF91DF91CF91BF91AF919F918F915E
:1002E0007F916F915F914F913F912F910F900FBE32
:1002F0000F901F901895982F8091C00085FFFCCF1C
:100300009093C60008958091C00087FFFCCF809134
:10031000C600089580E490E09093C5008093C400E7
:1003200088E18093C1000895982F92959F7020E0F6
:10033000F6E4E5E473E464E451E442E4382F3F700A
:100340009A3048F48091C00085FFFCCF905D909377
:10035000C600905312C09A3039F48091C00085FFD6
:10036000FCCF5093C6001BC09B3039F48091C00075
:1003700085FFFCCF4093C6001BC09C3039F48091B0
:10038000C00085FFFCCF7093C6001AC09D3039F4C1
:100390008091C00085FFFCCF6093C60011C09E30E5
:1003A00039F48091C00085FFFCCFE093C60008C0FF
:1003B0009F3031F48091C00085FFFCCFF093C600E0
:1003C0002F5F223011F0932FBBCF8091C00085FFAB
:1003D000FCCF80E28093C6000895FC0107C08091A5
:1003E000C00085FFFCCF9093C60031969081992381
:1003F000B1F708951092B00027E02093B10026EFE6
:100400003FEFAC01429FC001439F900D529F900D62
:10041000112481508093B200B89AB89BFECF089502
:100420008EBD0DB407FEFDCF8EB5089584B18C62EC
:1004300084B9249815B8389A80E58CBD8DB5816053
:100440008DBD1092B00087E08093B10087E3809368
:10045000B200B89AB89BFECF409A80E09FEF9EBD55
:100460000DB407FEFDCF8F5F8A30C9F7409880E456
:100470008EBD0DB407FEFDCF8EB51EBC0DB407FEBC
:10048000FDCF8EB51EBC0DB407FEFDCF8EB51EBCD4
:100490000DB407FEFDCF8EB51EBC0DB407FEFDCF1B
:1004A0008EB585E98EBD0DB407FEFDCF8EB59FEFED
:1004B0009EBD0DB407FEFDCF8EB58130C9F7409AC1
:1004C000409887E78EBD0DB407FEFDCF8EB51EBCEC
:1004D0000DB407FEFDCF8EB51EBC0DB407FEFDCFDB
:1004E0008EB51EBC0DB407FEFDCF8EB51EBC0DB47F
:1004F00007FEFDCF8EB585E98EBD0DB407FEFDCF9D
:100500008EB58FEF8EBD0DB407FEFDCF04C08EBD3E
:100510000DB407FEFDCF8EB58F3FC9F3409A4098CA
:1005200089E68EBD0DB407FEFDCF8EB51EBC0DB4A1
:1005300007FEFDCF8EB51EBC0DB407FEFDCF8EB5F8
:100540001EBC0DB407FEFDCF8EB51EBC0DB407FE5C
:10055000FDCF8EB585E98EBD0DB407FEFDCF8EB5FE
:100560008FEF8EBD0DB407FEFDCF04C08EBD0DB460
:1005700007FEFDCF8EB58F3FC9F3409A08959B01CA
:10058000AC0179E0220F331F441F551F7A95D1F734
:10059000409881E58EBD0DB407FEFDCF8EB5852F49
:1005A0009927AA27BB278EBD0DB407FEFDCF8EB5B8
:1005B000CA01AA27BB278EBD0DB407FEFDCF8EB59D
:1005C000BB27A52F942F832F8EBD0DB407FEFDCF23
:1005D0008EB52EBD0DB407FEFDCF8EB581E08EBD6C
:1005E0000DB407FEFDCF8EB59FEF9EBD0DB407FE87
:1005F000FDCF8EB58823C9F79FEF9EBD0DB407FED2
:10060000FDCF8EB58E3FC9F7089560E070E080E0C1
:1006100090E00E94BF0280E090E02FEF2EBD0DB46D
:1006200007FEFDCF3EB5019631E08E3B9307B1F753
:100630008FEF8EBD0DB407FEFDCF8EB580E090E04C
:100640002FEF2EBD0DB407FEFDCF3EB501968330D2
:100650009105B9F78FEF8EBD0DB407FEFDCF8EB5B6
:1006600080936C01843021F0863011F080E0089591
:1006700080E090E02FEF2EBD0DB407FEFDCF3EB51C
:10068000019683309105B9F720E030E040E050E07A
:1006900060E070E0EFEFEEBD0DB407FEFDCF8EB56C
:1006A00090E0A0E0B0E0062E04C0880F991FAA1FBA
:1006B000BB1F0A94D2F7282B392B4A2B5B2B685F80
:1006C0007F4F6032710539F720936D0130936E01D1
:1006D00040936F015093700120E030E040E050E023
:1006E00060E070E0EFEFEEBD0DB407FEFDCF8EB51C
:1006F00090E0A0E0B0E0062E04C0880F991FAA1F6A
:10070000BB1F0A94D2F7282B392B4A2B5B2B685F2F
:100710007F4F6831710539F7209371013093720171
:1007200040937301509374019FEF9EBD0DB407FE7B
:10073000FDCF8EB58535C9F79FEF9EBD0DB407FE81
:10074000FDCF8EB58A3AC9F7409A81E0089560914D
:100750006D0170916E0180916F01909170010E9406
:10076000BF0280E090E02FEF2EBD0DB407FEFDCF5D
:100770003EB501968B309105B9F78FEF8EBD0DB464
:1007800007FEFDCF3EB58FEF8EBD0DB407FEFDCF4A
:100790002EB5922F80E0232F30E0822B932B909365
:1007A0007601809375018FEF8EBD0DB407FEFDCFEE
:1007B0008EB58093770180E090E02FEF2EBD0DB4D1
:1007C00007FEFDCF3EB5019688309105B9F78FEF52
:1007D0008EBD0DB407FEFDCF9EB58FEF8EBD0DB45F
:1007E00007FEFDCF8EB5382F20E0892F90E0282B13
:1007F000392B30937901209378019FEF9EBD0DB482
:1008000007FEFDCF8EB58535C9F79FEF9EBD0DB4B0
:1008100007FEFDCF8EB58A3AC9F7409A81E0089568
:100820000F931F938C0160916D0170916E01809107
:100830006F01909170016F5F7F4F8F4F9F4F212FFE
:10084000332740E050E0620F731F841F951F0E9402
:10085000BF02A8015070440F551F80E090E02FEFB9
:1008600006C02EBD0DB407FEFDCF3EB50196841720
:100870009507B8F38FEF8EBD0DB407FEFDCF2EB5F3
:100880008FEF8EBD0DB407FEFDCF6EB5CA01029687
:100890003FEF06C03EBD0DB407FEFDCF4EB501963D
:1008A00042E080309407B0F3409A30E0962F80E029
:1008B000282B392BC9011F910F910895DF92EF92D8
:1008C000FF920F931F93CF93DF93EC011FEF609183
:1008D0006D0170916E0180916F01909170016F5F59
:1008E0007F4F8F4F9F4F2091780130917901220FD8
:1008F000331F40E050E0620F731F841F951F2C8947
:100900003D8944E0369527954A95E1F740E050E06F
:10091000620F731F841F951F0E94BF028C899D89DF
:100920002FE0D22ED82220E030E06D2D70E00BC0F9
:1009300040E01EBD0DB407FEFDCF5EB54F5F4032F7
:10094000C1F72F5F3F4F2617370790F301969D8B16
:100950008C8B8050924019F080E090E003C01D8A9B
:100960001C8AB5CFFE01E80FF91F1082019689306D
:100970009105C1F720E030E09FEF9EBD0DB407FE6A
:10098000FDCF8EB5FE01E20FF31F80832F5F3F4F37
:100990002830310591F719861A861B861C86FE01C0
:1009A00020E030E09FEF9EBD0DB407FEFDCF8EB579
:1009B00081872F5F3F4F319623303105A1F78FEFAD
:1009C0008EBD0DB407FEFDCF8EB58D8780E090E023
:1009D0002FEF2EBD0DB407FEFDCF3EB501968E3034
:1009E0009105B9F78FEF8EBD0DB407FEFDCF3EB573
:1009F0008FEF8EBD0DB407FEFDCF2EB5922F80E098
:100A0000232F30E0822B932B9F878E878FEF8EBD15
:100A10000DB407FEFDCF6EB58FEF8EBD0DB407FE92
:100A2000FDCF2EB58FEF8EBD0DB407FEFDCF9EB569
:100A30008FEF8EBD0DB407FEFDCFEEB430E040E089
:100A400050E0542F432F322F2227892F90E0A0E02F
:100A5000B0E0DC0199278827282B392B4A2B5B2B08
:100A6000862F90E0A0E0B0E0282B392B4A2B5B2B9F
:100A7000FF2400E010E01E2D0027FF24EE242E2985
:100A80003F29402B512B288B398B4A8B5B8B80E184
:100A900090E08D199109A5E0880F991FAA95E1F7BB
:100AA0002FEF2EBD0DB407FEFDCF3EB50197C9F760
:100AB000409ADF91CF911F910F91FF90EF90DF90BF
:100AC000089560916D0170916E0180916F01909118
:100AD00070016F5D7F4F8F4F9F4F20917801309154
:100AE0007901220F331F40E050E0620F731F841F13
:100AF000951F4091770150E0209160013091610194
:100B000022503040F9014E9F90014F9F300D5E9F63
:100B1000300D112440E050E0620F731F841F951FB9
:100B20000E94BF02109269011092680110926B013D
:100B300010926A010895CF93DF93EC0180916801D0
:100B4000909169010196909369018093680181E019
:100B5000888380916801909169018050924009F0EA
:100B600064C0109269011092680120916A0130916D
:100B70006B012F5F3F4F30936B0120936A0180918F
:100B8000770190E028173907A1F4409A809160011D
:100B9000909161010E941004909361018093600123
:100BA000885F9F4F10F0188246C010926B01109220
:100BB0006A01409A60916D0170916E0180916F01A0
:100BC000909170016F5D7F4F8F4F9F4F20916A0111
:100BD00030916B0140E050E0620F731F841F951F3E
:100BE0002091780130917901220F331F40E050E0CD
:100BF000620F731F841F951F4091770150E0209171
:100C000060013091610122503040F9014E9F900106
:100C10004F9F300D5E9F300D112440E050E0620F79
:100C2000731F841F951F0E94BF028FEF8EBD0DB4EE
:100C300007FEFDCF8EB5DF91CF910895F894FFCFD9
:100C40000A0D494E54305F766563740A0D000A0D33
:100C5000494E54305F7665637420310A0D000A0DE9
:100C6000494E54305F7665637420320A0D000A0DD8
:100C7000494E54305F7665637420330A0D000A0DC7
:100C8000494E54305F7665637420656E640A0D00CA
:020C90008000E2
:00000001FF
